:100750000A128A11AB2B031383160614861406158E
:1007600086150616081088100811881108128812BC
:10077000081388138312061CBE2BDF2B861CC12B8B
:10078000D02B061DC42BCA2B861DC72BC72B0730A9
:100790008800BB2B861DCD2BCD2B06308800BB2BB4
:1007A000061DD32BD92B861DD62BD62B05308800C2
:1007B000BB2B861DDC2BDC2B04308800BB2B861C5E
:1007C000E22BF12B061DE52BEB2B861DE82BE82BEE
:1007D00003308800BB2B861DEE2BEE2B02308800E9
:1007E000BB2B061DF42BFA2B861DF72BF72B0130A4
:1007F0008800BB2B861DFD2BFD2B00308800BB2BFA
:02400E00B13FC0
:00000001FF
